:100000000C9446000C9465000C9465000C946500FB
:100010000C9465000C9465000C9465000C946500CC
:100020000C9465000C9465000C9465000C946500BC
:100030000C9465000C94DE000C9465000C94650033
:100040000C9465000C9465000C9465000C9465009C
:100050000C9465000C9465000C9465000C9465008C
:100060000C9465000C9465000C9465000C9465007C
:100070000C9465000C9465000C9465000C9465006C
:100080000C9465000C9465000C94650011241FBE4F
:10009000CFEFD0E4DEBFCDBF11E0A0E0B1E0EEE5F0
:1000A000FAE000E00BBF02C007900D92A039B10743
:1000B000D9F721E0A0E9B1E001C01D92AE39B20745
:1000C000E1F70E946B030C942D050C940000CF9374
:1000D000DF9300D01F92CDB7DEB789837B836A831D
:1000E00089818A3031F48A819B81BC018DE00E9434
:1000F000670080EC90E0FC018081882F90E08072A6
:100100009927892BB1F386EC90E02981FC012083AB
:1001100080E090E00F900F900F90DF91CF910895C5
:10012000CF93DF93CDB7DEB781E890E02BE0FC0101
:10013000208388E890E02DE730E0FC0131832083C4
:100140008FE690E022E0FC01208384E890E0FC014F
:100150001182108280910E0190910F01A0911001E7
:10016000B09111018093910190939201A09393011A
:10017000B09394018FE590E02FE530E0F901208104
:100180002068FC0120830000DF91CF910895CF9378
:10019000DF93CDB7DEB781E890E0FC01108200006C
:1001A000DF91CF910895CF93DF93CDB7DEB781E094
:1001B000809390010000DF91CF9108951F920F92DC
:1001C00000905F000F92112400905B000F922F931C
:1001D0003F934F935F936F937F938F939F93AF93CF
:1001E000BF93EF93FF93CF93DF93CDB7DEB78091AB
:1001F000910190919201A0919301B0919401019786
:10020000A109B1098093910190939201A093930168
:10021000B09394018091910190919201A0919301EA
:10022000B0919401892B8A2B8B2B91F40E94D300DF
:1002300080910E0190910F01A0911001B0911101D8
:100240008093910190939201A0939301B0939401B4
:100250000000DF91CF91FF91EF91BF91AF919F91FE
:100260008F917F916F915F914F913F912F910F905F
:1002700000925B000F9000925F000F901F90189506
:10028000CF93DF9300D000D0CDB7DEB769837A83F8
:100290008B839C8389819A81AB81BC8180930E0181
:1002A00090930F01A0931001B093110180910E0162
:1002B00090910F01A0911001B091110180939101D3
:1002C00090939201A0939301B093940100000F903A
:1002D0000F900F900F90DF91CF9108950F931F9380
:1002E000CF93DF9300D000D0CDB7DEB769837A8398
:1002F0008B839C838091950190919601A0919701A9
:10030000B09198019C01AD0169817A818B819C81BA
:100310000E949903882309F477C020E030E0A90106
:1003200069817A818B819C810E949903882351F491
:1003300081E990E021E930E0F90120812870FC0199
:10034000208309C081E990E021E930E0F9012081B2
:100350002360FC01208328E539E344E75FE36981FA
:100360007A818B819C810E949903882344F488E9D7
:1003700090E02FEF3FEFFC013183208334C020E079
:1003800034E244EF56E469817A818B819C810E943A
:10039000BB04181634F488E990E0FC011182108245
:1003A00022C008E910E020E030E040E053E4698139
:1003B0007A818B819C810E94C004DC01CB019C016D
:1003C000AD0160E074E284EF9AE40E949E03DC01D8
:1003D000CB01BC01CD010E941004DC01CB010197CF
:1003E000F8019183808384E990E0FC0111821082FE
:1003F00089819A81AB81BC8180939501909396010C
:10040000A0939701B093980100000F900F900F9068
:100410000F90DF91CF911F910F910895CF93DF93AC
:10042000CDB7DEB780E990E020E4FC01208381E9CC
:1004300090E02BE0FC01208360E070E0CB010E94A3
:100440006E010000DF91CF910895CF93DF93CDB778
:10045000DEB780E990E0FC01108281E990E0FC01C8
:1004600010820000DF91CF910895CF93DF93CDB735
:10047000DEB780919A0190919B018230910509F439
:1004800044C08330910528F4009759F00197B1F0EA
:10049000DCC08330910509F473C0049709F49CC053
:1004A000D4C01092990110929C0110929D0181E09C
:1004B00090E090939B0180939A01D3C080E290E0FA
:1004C000FC018081882F90E0809590959927892B59
:1004D00039F481E090E090939B0180939A01BAC037
:1004E00080E290E0FC018081882F90E080959095DB
:1004F0009927019709F0AEC01092990182E090E02F
:1005000090939B0180939A01A5C0809199018531B8
:1005100090F080E290E0FC018081882F90E080954F
:1005200090959927892B39F481E090E090939B0175
:1005300080939A0191C080919901853148F410927D
:100540009C0183E090E090939B0180939A0184C08A
:1005500080919901853108F47FC080E290E0FC0130
:100560008081882F90E0809590959927019709F0D8
:1005700073C082E090E090939B0180939A016CC0DD
:1005800080919901882F90E08A599E4FFC019081BB
:1005900080919C01891760F480919C018F5F80930A
:1005A0009C0183E090E090939B0180939A0156C058
:1005B00080919901882F90E08A599E4FFC0190818B
:1005C00080919C01891708F449C084E090E09093E1
:1005D0009B0180939A0142C080919901882F90E0FD
:1005E00085589E4FFC01908180919D01891788F468
:1005F00060E070E0CB010E946E0180919D018F5FF1
:1006000080939D0184E090E090939B0180939A01F8
:1006100027C080919901882F90E085589E4FFC015A
:10062000908180919D018917D8F010929C011092C1
:100630009D01809199018F5F8093990182E090E004
:1006400090939B0180939A010BC010929B01109292
:100650009A0107C0000005C0000003C0000001C0EF
:10066000000080919A0190919B018230910591F058
:100670008330910518F4019739F029C08330910532
:1006800009F1049709F123C060E070E0CB010E94FA
:100690006E011DC0809199018531C0F4809199014E
:1006A000882F90E0880F991F880F991F8E5E9E4FAC
:1006B000FC0180819181A281B381BC01CD010E94A6
:1006C0006E0104C0000003C0000001C00000000073
:1006D000DF91CF910895CF93DF93CDB7DEB781E25D
:1006E00090E0FC01108282E290E02FEFFC01208379
:1006F00084E290E020E4FC01208385E290E0FC01AC
:1007000010820E940E0210929B0110929A0162E3E5
:1007100070E080E090E00E9440010E9490000E9402
:1007200035020000809190018823E1F3109290013E
:10073000F6CF0E94460408F481E008950E94B203B7
:100740000C9481040E947A0458F00E94730440F0D3
:1007500029F45F3F29F00C946A0451110C94B504FC
:100760000C9470040E94920468F39923B1F355230A
:1007700091F3951B550BBB27AA27621773078407B4
:1007800038F09F5F5F4F220F331F441FAA1FA9F34A
:1007900035D00E2E3AF0E0E832D091505040E69538
:1007A000001CCAF72BD0FE2F29D0660F771F881F99
:1007B000BB1F261737074807AB07B0E809F0BB0B8C
:1007C000802DBF01FF2793585F4F3AF09E3F5105A0
:1007D00078F00C946A040C94B5045F3FE4F3983EFF
:1007E000D4F3869577956795B795F7959F5FC9F789
:1007F000880F911D9695879597F90895E1E0660F0A
:10080000771F881FBB1F621773078407BA0720F082
:10081000621B730B840BBA0BEE1F88F7E0950895EB
:100820000E9417046894B1110C94B50408950E94B5
:100830009A0488F09F5798F0B92F9927B751B0F0D4
:10084000E1F0660F771F881F991F1AF0BA95C9F754
:1008500014C0B13091F00E94B404B1E008950C943A
:10086000B404672F782F8827B85F39F0B93FCCF3ED
:10087000869577956795B395D9F73EF490958095D1
:10088000709561957F4F8F4F9F4F0895990F000886
:10089000550FAA0BE0E8FEEF16161706E807F90752
:1008A000C0F012161306E407F50798F0621B730BED
:1008B000840B950B39F40A2661F0232B242B252B6E
:1008C00021F408950A2609F4A140A6958FEF811D11
:1008D000811D089597F99F6780E870E060E00895B2
:1008E0009FEF80EC089500240A9416161706180648
:1008F0000906089500240A94121613061406050624
:100900000895092E0394000C11F4882352F0BB0FB4
:1009100040F4BF2B11F460FF04C06F5F7F4F8F4F17
:100920009F4F089557FD9058440F551F59F05F3F52
:1009300071F04795880F97FB991F61F09F3F79F001
:1009400087950895121613061406551FF2CF469583
:10095000F1DF08C0161617061806991FF1CF869505
:100960007105610508940895E894BB2766277727E9
:10097000CB0197F908950E94460408F48FEF08957B
:100980000E94D3040C9481040E94730438F00E94E6
:100990007A0420F0952311F00C946A040C947004EE
:1009A00011240C94B5040E94920470F3959FC1F336
:1009B000950F50E0551F629FF001729FBB27F00D0D
:1009C000B11D639FAA27F00DB11DAA1F649F662762
:1009D000B00DA11D661F829F2227B00DA11D621FB1
:1009E000739FB00DA11D621F839FA00D611D221F6B
:1009F000749F3327A00D611D231F849F600D211D4F
:100A0000822F762F6A2F11249F5750409AF0F1F0D1
:100A100088234AF0EE0FFF1FBB1F661F771F881F3A
:100A200091505040A9F79E3F510580F00C946A0404
:100A30000C94B5045F3FE4F3983ED4F38695779524
:100A40006795B795F795E7959F5FC1F7FE2B880FE0
:0E0A5000911D9695879597F90895F894FFCF1C
:100A5E00000000020000000067000000000001001E
:100A6E000000719DAE43719DAE437BD49243719D48
:100A7E00AE43A4D08243719DAE437BD49243A4D0A7
:100A8E008243719DAE43A4D0824300D002447BD4F6
:100A9E00124400D002447BD4124400D00244A4D0AD
:100AAE0082437B14E9430000DC430000C443719D84
:100ABE00AE43719D2E4404040106010101010C0296
:100ACE0001010101010101010108020202010101FE
:100ADE0001010101010101010101010101010401F5
:00000001FF
